{
  "transactions": [
    {
      "hash": "0x56396dad52da67bfdbdfcd9679d16eb5e829ac28bf13e6ad5f239dd600328fcc",
      "transactionType": "CALL",
      "contractName": null,
      "contractAddress": "0xce224fe02e37902110b23a72d8bf6cd9aea55385",
      "function": "setA(uint256)",
      "arguments": [
        "1"
      ],
      "transaction": {
        "from": "0xb68aa9e398c054da7ebaaa446292f611ca0cd52b",
        "to": "0xce224fe02e37902110b23a72d8bf6cd9aea55385",
        "gas": "0x1ab83",
        "value": "0x0",
        "input": "0xee919d500000000000000000000000000000000000000000000000000000000000000001",
        "nonce": "0x14",
        "chainId": "0x19f8f6fef2"
      },
      "additionalContracts": [],
      "isFixedGasLimit": false
    }
  ],
  "receipts": [
    {
      "status": "0x1",
      "cumulativeGasUsed": "0x1e54c",
      "logs": [
        {
          "address": "0xce224fe02e37902110b23a72d8bf6cd9aea55385",
          "topics": [
            "0xbbf1800bb334f676b1ca855b4c3f87de6f1600cabd7bd915c11c4782cc7803c1"
          ],
          "data": "0x00000000000000000000000000000000000000000000000000000000000000200000000000000000000000000000000000000000000000000000000000000024ee919d50000000000000000000000000000000000000000000000000000000000000000100000000000000000000000000000000000000000000000000000000",
          "blockHash": "0x74c198a291e5a91c137a9e3a92f14e26315bbad1da46d855b421bde447d246b5",
          "blockNumber": "0x3d876",
          "transactionHash": "0x56396dad52da67bfdbdfcd9679d16eb5e829ac28bf13e6ad5f239dd600328fcc",
          "transactionIndex": "0x1",
          "logIndex": "0x0",
          "removed": false
        },
        {
          "address": "0xeecac4e8f63c0432fb618a7221c5cb02ea27d3f2",
          "topics": [
            "0xd00fbfaee19a244732cdc29fd0d130b77a7511feaa49c83cf60351ca4bfdcaa5"
          ],
          "data": "0x00000000000000000000000000000000000000000000000000000000000000200000000000000000000000000000000000000000000000000000000000000044abe0c6400000000000000000000000000000000000000000000000000000000000000002000000000000000000000000000000000000000000000000000000000000000400000000000000000000000000000000000000000000000000000000",
          "blockHash": "0x74c198a291e5a91c137a9e3a92f14e26315bbad1da46d855b421bde447d246b5",
          "blockNumber": "0x3d876",
          "transactionHash": "0x56396dad52da67bfdbdfcd9679d16eb5e829ac28bf13e6ad5f239dd600328fcc",
          "transactionIndex": "0x1",
          "logIndex": "0x1",
          "removed": false
        }
      ],
      "logsBloom": "0x00000000000000000000000000080000000000000000000000004000002000000000000000000000000000000000000000000000000000000000000000000000008000000000000000000000000000000000000000000000000000000000000000000000000000000400080000000000000000000000000000000000000000000000000000000000000000000000000000000000000000000040000000000000000000000000000000000000000000000000000000000000000000000000000000000000000001000000000000000000000000000000000000000000000000000000000000040000000000000000000000800040000000000000000080000000",
      "type": "0x2",
      "transactionHash": "0x56396dad52da67bfdbdfcd9679d16eb5e829ac28bf13e6ad5f239dd600328fcc",
      "transactionIndex": "0x1",
      "blockHash": "0x74c198a291e5a91c137a9e3a92f14e26315bbad1da46d855b421bde447d246b5",
      "blockNumber": "0x3d876",
      "gasUsed": "0x12451",
      "effectiveGasPrice": "0xfd",
      "from": "0xb68aa9e398c054da7ebaaa446292f611ca0cd52b",
      "to": "0xce224fe02e37902110b23a72d8bf6cd9aea55385",
      "contractAddress": null,
      "l1Fee": "0xc4c2426a33b",
      "l1GasPrice": "0x25cda1c39",
      "l1GasUsed": "0x79c"
    }
  ],
  "libraries": [],
  "pending": [],
  "returns": {},
  "timestamp": 1721292266,
  "chain": 111551119090,
  "commit": "a53049b"
}